:040000008031122811
:10000800803120007F08F000111C0F2811100130EA
:10001800AA020030AB3B7008FF00090080311428A9
:100028007F308400813085002030860000308700D2
:100038000C3081318B21200081316029E830F100BA
:100048000330F2007A08F4007908F3008031D820F0
:10005800803171082000AF002F08FB00E830F10064
:100068000330F2007A08F4007908F30081310C219A
:1000780080317208FA007108F9006430F10000302C
:10008800F2007A08F4007908F3008031D820803132
:1000980071082000AF002F08AC006430F100003078
:1000A800F2007A08F4007908F30081310C218031DC
:1000B8007208FA007108F9000A30F1000030F20005
:1000C8007A08F4007908F3008031D820803171086B
:1000D8002000AF002F08AD000A30F1000030F20018
:1000E8007A08F4007908F30081310C218031710815
:1000F8002000AF002F08AE0022008E150E167B08D8
:10010800203E8600870101088131382180310D3079
:100118002000B000FB30AF00AF0B9028B00B902848
:10012800003222008E110E1620002C08203E860078
:10013800870101088131382180310D302000B0005D
:10014800FB30AF00AF0BA628B00BA6280032220068
:100158008E150E1220002D08203E8600870101080A
:100168008131382180310D302000B000FB30AF00E4
:10017800AF0BBC28B00BBC28003222008E110E1227
:1001880020002E08203E8600870101088131382191
:1001980080310D302000B000FB30AF00AF0BD2280B
:1001A800B00BD22800320800F601F701710872047A
:1001B80003190729F801F80AF21BEC280130F13578
:1001C800F20D890BE3280130F5007508F807E028DF
:1001D8000130F635F70D890BED2872087402031DFE
:1001E800F72871087302031CFE287108F3027208CD
:1001F800F43B76140130F236F10C890BFF280130FC
:10020800F802031DEC287708F2007608F1000800D0
:100218007108720403193329F601F60AF21B1E2924
:100228000130F135F20D890B15290130F5007508FB
:10023800F607122972087402031D24297108730233
:10024800031C2A297108F3027208F43B0130F236C4
:10025800F10C890B2B290130F602031D1E297408A5
:10026800F2007308F1000800F20022008E138E12CB
:100278008E138E12F3010830730203185D29720879
:10028800F100730A4829F136890B4729711C4F2957
:1002980022000E17512922000E138E178E178E1367
:1002A8008E130130F1007108F30708307302031C44
:1002B80043298E168E16080021008E0120008E011B
:1002C80081317021813120002B08FA002A08F900B9
:1002D80080312220813167293F3020009805303055
:1002E80098040B309700DC30960018142100111484
:1002F8000B178B17080003349F3425340D349934B9
:10030800493441341F34013409340F342734FE0092
:0A03180012001E00FE0B8C290034B9
:020000040001F9
:04000E00A2FFFFFF4F
:00000001FF
