:08000000803102288731EE2F48
:100D1000FE0012001E00FE0B892E003403349F34A7
:100D200025340D349934493441341F3401340934A5
:100D300021008E0120008E01AD01AE0127302E0270
:100D4000103003192D0203189C2E2E08F9002D08CF
:100D5000F800873141278631F930FC000000FC0B98
:100D6000AE2E0032000001302000AD070030AE3D55
:100D70009E2EF10022008E138E128E138E12F2011F
:100D8000083072020318DE2E7108F000720AC92EB4
:100D9000F036890BC82E701CD02E22000E17D22ED2
:100DA00022000E138E178E178E138E130130F00053
:100DB0007008F20708307202031CC42E8E168E16BD
:100DC0000800700871040319082FF501F50AF11BDA
:100DD000F32E0130F035F10D890BEA2E0130F400CD
:100DE0007408F507E72E71087302031DF92E7008C9
:100DF0007202031CFF2E7008F2027108F33B0130EF
:100E0000F136F00C890B002F0130F502031DF32E93
:100E10007308F1007208F0000800F501F60170088F
:100E2000710403193C2FF701F70AF11B212F013040
:100E3000F035F10D890B182F0130F4007408F70715
:100E4000152F0130F535F60D890B222F710873022D
:100E5000031D2C2F70087202031C332F7008F2023E
:100E60007108F33B75140130F136F00C890B342F07
:100E70000130F702031D212F7608F1007508F000FC
:100E80000800E830F0000330F1007908F30078083A
:100E9000F20087310D2787317008FA007A08FD00CB
:100EA000E830F0000330F1007908F3007808F20030
:100EB0008631E12687317108F9007008F800643046
:100EC000F0000030F1007908F3007808F200873173
:100ED0000D2787317008FA007A082000AA006430D4
:100EE000F0000030F1007908F3007808F200863154
:100EF000E12687317108F9007008F8000A30F00027
:100F00000030F1007908F3007808F20087310D27EE
:100F100087317008FA007A082000AB000A30F00030
:100F20000030F1007908F3007808F2008631E126FC
:100F300087317008FA007A082000AC0022008E1574
:100F40000E167D08203E8600870101088631B926ED
:100F500087310730FB007D30FA00FA0BAD2FFB0B19
:100F6000AD2F22008E110E1620002A08203E86008A
:100F7000870101088631B92687310730FB007D30B3
:100F8000FA00FA0BC12FFB0BC12F22008E150E1297
:100F900020002B08203E8600870101088631B926F3
:100FA00087310730FB007D30FA00FA0BD52FFB0BA1
:100FB000D52F22008E110E1220002C08203E860014
:100FC000870101088631B92687310730FB007D3063
:100FD000FA00FA0BE92FFB0BE92F0800FD01AA012B
:100FE000AB01AC018E308400863085002030860055
:100FF000003087000A308631882620008631982EFE
:020000040001F9
:04000E00A2FFFFFF4F
:00000001FF
