:08000000803102288731EE2F48
:100CA0006A30210099009A01980108008631502687
:100CB000863186318F260800FE0012001E00FE0BD2
:100CC0005D2E003403349F3425340D349934493477
:100CD00041341F34013409348631562686312000D0
:100CE000AE01AF0127302F02103003192E02031876
:100CF0006F2E2F08F9002E08F80087313B27863128
:100D00000D30FD00FB30FC00FC0B842EFD0B842E0F
:100D1000003201302000AE070030AF3D722E2200BD
:100D20008C013F3021008C00173023008C00240000
:100D30008C0122008D01F03021008D00F030230065
:100D40008D0024008D0122008E01073021008E00CD
:100D5000073023008E0024008E0121009517220009
:100D60009D019E010800F10022008E138E128E1349
:100D70008E12F201083072020318D82E7108F000AA
:100D8000720AC32EF036890BC22E701CCA2E2200A6
:100D90000E17CC2E22000E138E178E178E138E1365
:100DA0000130F0007008F20708307202031CBE2EFA
:100DB0008E168E160800700871040319022FF501B3
:100DC000F50AF11BED2E0130F035F10D890BE42E03
:100DD0000130F4007408F507E12E71087302031D59
:100DE000F32E70087202031CF92E7008F2027108CB
:100DF000F33B0130F136F00C890BFA2E0130F5028D
:100E0000031DED2E7308F1007208F0000800F501D3
:100E1000F601700871040319362FF701F70AF11B68
:100E20001B2F0130F035F10D890B122F0130F4002A
:100E30007408F7070F2F0130F535F60D890B1C2FBD
:100E400071087302031D262F70087202031C2D2FD8
:100E50007008F2027108F33B75140130F136F00CA2
:100E6000890B2E2F0130F702031D1B2F7608F1008E
:100E70007508F0000800E830F0000330F100790850
:100E8000F3007808F2008731072787317008FA00ED
:100E90007A082000AA00E830F0000330F100790859
:100EA000F3007808F2008631DB2687317108F900FB
:100EB0007008F8006430F0000030F1007908F300A9
:100EC0007808F2008731072787317008FA007A081E
:100ED0002000AB006430F0000030F1007908F3002E
:100EE0007808F2008631DB2687317108F900700836
:100EF000F8000A30F0000030F1007908F3007808BB
:100F0000F2008731072787317008FA007A0820003D
:100F1000AC000A30F0000030F1007908F3007808E6
:100F2000F2008631DB2687317008FA007A0820004B
:100F3000AD0022008E150E1620002A08203E8600E5
:100F4000870101088631B32687314130FB00EE303E
:100F5000FA00FA0BA92FFB0BA92F000022008E111B
:100F60000E1620002B08203E8600870101088631DE
:100F7000B32687314130FB00EE30FA00FA0BBE2F6A
:100F8000FB0BBE2F000022008E150E1220002C0835
:100F9000203E8600870101088631B3268731413023
:100FA000FB00EE30FA00FA0BD32FFB0BD32F00001F
:100FB00022008E110E1220002D08203E860087018F
:100FC00001088631B32687314130FB00EE30FA004C
:100FD000FA0BE82FFB0BE82F00000800AA01AB0179
:100FE000AC01AD016230840086308500203086007F
:100FF000003087000A3086315C26200086316C2E56
:020000040001F9
:04000E00E4FFFFDE2E
:00000001FF
